{
  "contractName": "MutinyTokenCrowdsale",
  "abi": [
    {
      "constant": true,
      "inputs": [],
      "name": "hasClosed",
      "outputs": [
        {
          "name": "",
          "type": "bool"
        }
      ],
      "payable": false,
      "stateMutability": "view",
      "type": "function"
    },
    {
      "constant": true,
      "inputs": [],
      "name": "rate",
      "outputs": [
        {
          "name": "",
          "type": "uint256"
        }
      ],
      "payable": false,
      "stateMutability": "view",
      "type": "function"
    },
    {
      "constant": true,
      "inputs": [],
      "name": "cap",
      "outputs": [
        {
          "name": "",
          "type": "uint256"
        }
      ],
      "payable": false,
      "stateMutability": "view",
      "type": "function"
    },
    {
      "constant": true,
      "inputs": [],
      "name": "goal",
      "outputs": [
        {
          "name": "",
          "type": "uint256"
        }
      ],
      "payable": false,
      "stateMutability": "view",
      "type": "function"
    },
    {
      "constant": true,
      "inputs": [],
      "name": "weiRaised",
      "outputs": [
        {
          "name": "",
          "type": "uint256"
        }
      ],
      "payable": false,
      "stateMutability": "view",
      "type": "function"
    },
    {
      "constant": true,
      "inputs": [
        {
          "name": "",
          "type": "address"
        }
      ],
      "name": "contributions",
      "outputs": [
        {
          "name": "",
          "type": "uint256"
        }
      ],
      "payable": false,
      "stateMutability": "view",
      "type": "function"
    },
    {
      "constant": true,
      "inputs": [],
      "name": "tokenSalePercentage",
      "outputs": [
        {
          "name": "",
          "type": "uint256"
        }
      ],
      "payable": false,
      "stateMutability": "view",
      "type": "function"
    },
    {
      "constant": true,
      "inputs": [],
      "name": "closingTime",
      "outputs": [
        {
          "name": "",
          "type": "uint256"
        }
      ],
      "payable": false,
      "stateMutability": "view",
      "type": "function"
    },
    {
      "constant": false,
      "inputs": [],
      "name": "finalize",
      "outputs": [],
      "payable": false,
      "stateMutability": "nonpayable",
      "type": "function"
    },
    {
      "constant": true,
      "inputs": [],
      "name": "capReached",
      "outputs": [
        {
          "name": "",
          "type": "bool"
        }
      ],
      "payable": false,
      "stateMutability": "view",
      "type": "function"
    },
    {
      "constant": true,
      "inputs": [],
      "name": "wallet",
      "outputs": [
        {
          "name": "",
          "type": "address"
        }
      ],
      "payable": false,
      "stateMutability": "view",
      "type": "function"
    },
    {
      "constant": true,
      "inputs": [],
      "name": "foundersPercentage",
      "outputs": [
        {
          "name": "",
          "type": "uint256"
        }
      ],
      "payable": false,
      "stateMutability": "view",
      "type": "function"
    },
    {
      "constant": true,
      "inputs": [],
      "name": "foundersTimelock",
      "outputs": [
        {
          "name": "",
          "type": "address"
        }
      ],
      "payable": false,
      "stateMutability": "view",
      "type": "function"
    },
    {
      "constant": false,
      "inputs": [],
      "name": "renounceOwnership",
      "outputs": [],
      "payable": false,
      "stateMutability": "nonpayable",
      "type": "function"
    },
    {
      "constant": true,
      "inputs": [],
      "name": "goalReached",
      "outputs": [
        {
          "name": "",
          "type": "bool"
        }
      ],
      "payable": false,
      "stateMutability": "view",
      "type": "function"
    },
    {
      "constant": true,
      "inputs": [],
      "name": "foundationPercentage",
      "outputs": [
        {
          "name": "",
          "type": "uint256"
        }
      ],
      "payable": false,
      "stateMutability": "view",
      "type": "function"
    },
    {
      "constant": false,
      "inputs": [
        {
          "name": "_beneficiary",
          "type": "address"
        }
      ],
      "name": "removeFromWhitelist",
      "outputs": [],
      "payable": false,
      "stateMutability": "nonpayable",
      "type": "function"
    },
    {
      "constant": false,
      "inputs": [
        {
          "name": "_beneficiaries",
          "type": "address[]"
        }
      ],
      "name": "addManyToWhitelist",
      "outputs": [],
      "payable": false,
      "stateMutability": "nonpayable",
      "type": "function"
    },
    {
      "constant": true,
      "inputs": [],
      "name": "isFinalized",
      "outputs": [
        {
          "name": "",
          "type": "bool"
        }
      ],
      "payable": false,
      "stateMutability": "view",
      "type": "function"
    },
    {
      "constant": true,
      "inputs": [],
      "name": "owner",
      "outputs": [
        {
          "name": "",
          "type": "address"
        }
      ],
      "payable": false,
      "stateMutability": "view",
      "type": "function"
    },
    {
      "constant": true,
      "inputs": [],
      "name": "partnersFund",
      "outputs": [
        {
          "name": "",
          "type": "address"
        }
      ],
      "payable": false,
      "stateMutability": "view",
      "type": "function"
    },
    {
      "constant": true,
      "inputs": [
        {
          "name": "",
          "type": "address"
        }
      ],
      "name": "whitelist",
      "outputs": [
        {
          "name": "",
          "type": "bool"
        }
      ],
      "payable": false,
      "stateMutability": "view",
      "type": "function"
    },
    {
      "constant": true,
      "inputs": [],
      "name": "foundationFund",
      "outputs": [
        {
          "name": "",
          "type": "address"
        }
      ],
      "payable": false,
      "stateMutability": "view",
      "type": "function"
    },
    {
      "constant": true,
      "inputs": [],
      "name": "investorMinCap",
      "outputs": [
        {
          "name": "",
          "type": "uint256"
        }
      ],
      "payable": false,
      "stateMutability": "view",
      "type": "function"
    },
    {
      "constant": false,
      "inputs": [],
      "name": "claimRefund",
      "outputs": [],
      "payable": false,
      "stateMutability": "nonpayable",
      "type": "function"
    },
    {
      "constant": true,
      "inputs": [],
      "name": "partnersTimelock",
      "outputs": [
        {
          "name": "",
          "type": "address"
        }
      ],
      "payable": false,
      "stateMutability": "view",
      "type": "function"
    },
    {
      "constant": true,
      "inputs": [],
      "name": "openingTime",
      "outputs": [
        {
          "name": "",
          "type": "uint256"
        }
      ],
      "payable": false,
      "stateMutability": "view",
      "type": "function"
    },
    {
      "constant": true,
      "inputs": [],
      "name": "releaseTime",
      "outputs": [
        {
          "name": "",
          "type": "uint256"
        }
      ],
      "payable": false,
      "stateMutability": "view",
      "type": "function"
    },
    {
      "constant": true,
      "inputs": [],
      "name": "stage",
      "outputs": [
        {
          "name": "",
          "type": "uint8"
        }
      ],
      "payable": false,
      "stateMutability": "view",
      "type": "function"
    },
    {
      "constant": true,
      "inputs": [],
      "name": "foundersFund",
      "outputs": [
        {
          "name": "",
          "type": "address"
        }
      ],
      "payable": false,
      "stateMutability": "view",
      "type": "function"
    },
    {
      "constant": false,
      "inputs": [
        {
          "name": "_beneficiary",
          "type": "address"
        }
      ],
      "name": "addToWhitelist",
      "outputs": [],
      "payable": false,
      "stateMutability": "nonpayable",
      "type": "function"
    },
    {
      "constant": true,
      "inputs": [],
      "name": "foundationTimelock",
      "outputs": [
        {
          "name": "",
          "type": "address"
        }
      ],
      "payable": false,
      "stateMutability": "view",
      "type": "function"
    },
    {
      "constant": false,
      "inputs": [
        {
          "name": "_beneficiary",
          "type": "address"
        }
      ],
      "name": "buyTokens",
      "outputs": [],
      "payable": true,
      "stateMutability": "payable",
      "type": "function"
    },
    {
      "constant": true,
      "inputs": [],
      "name": "investorHardCap",
      "outputs": [
        {
          "name": "",
          "type": "uint256"
        }
      ],
      "payable": false,
      "stateMutability": "view",
      "type": "function"
    },
    {
      "constant": false,
      "inputs": [
        {
          "name": "_newOwner",
          "type": "address"
        }
      ],
      "name": "transferOwnership",
      "outputs": [],
      "payable": false,
      "stateMutability": "nonpayable",
      "type": "function"
    },
    {
      "constant": true,
      "inputs": [],
      "name": "partnersPercentage",
      "outputs": [
        {
          "name": "",
          "type": "uint256"
        }
      ],
      "payable": false,
      "stateMutability": "view",
      "type": "function"
    },
    {
      "constant": true,
      "inputs": [],
      "name": "vault",
      "outputs": [
        {
          "name": "",
          "type": "address"
        }
      ],
      "payable": false,
      "stateMutability": "view",
      "type": "function"
    },
    {
      "constant": true,
      "inputs": [],
      "name": "token",
      "outputs": [
        {
          "name": "",
          "type": "address"
        }
      ],
      "payable": false,
      "stateMutability": "view",
      "type": "function"
    },
    {
      "inputs": [
        {
          "name": "_rate",
          "type": "uint256"
        },
        {
          "name": "_wallet",
          "type": "address"
        },
        {
          "name": "_token",
          "type": "address"
        },
        {
          "name": "_cap",
          "type": "uint256"
        },
        {
          "name": "_openingTime",
          "type": "uint256"
        },
        {
          "name": "_closingTime",
          "type": "uint256"
        },
        {
          "name": "_goal",
          "type": "uint256"
        },
        {
          "name": "_foundersFund",
          "type": "address"
        },
        {
          "name": "_foundationFund",
          "type": "address"
        },
        {
          "name": "_partnersFund",
          "type": "address"
        },
        {
          "name": "_releaseTime",
          "type": "uint256"
        }
      ],
      "payable": false,
      "stateMutability": "nonpayable",
      "type": "constructor"
    },
    {
      "payable": true,
      "stateMutability": "payable",
      "type": "fallback"
    },
    {
      "anonymous": false,
      "inputs": [],
      "name": "Finalized",
      "type": "event"
    },
    {
      "anonymous": false,
      "inputs": [
        {
          "indexed": true,
          "name": "previousOwner",
          "type": "address"
        }
      ],
      "name": "OwnershipRenounced",
      "type": "event"
    },
    {
      "anonymous": false,
      "inputs": [
        {
          "indexed": true,
          "name": "previousOwner",
          "type": "address"
        },
        {
          "indexed": true,
          "name": "newOwner",
          "type": "address"
        }
      ],
      "name": "OwnershipTransferred",
      "type": "event"
    },
    {
      "anonymous": false,
      "inputs": [
        {
          "indexed": true,
          "name": "purchaser",
          "type": "address"
        },
        {
          "indexed": true,
          "name": "beneficiary",
          "type": "address"
        },
        {
          "indexed": false,
          "name": "value",
          "type": "uint256"
        },
        {
          "indexed": false,
          "name": "amount",
          "type": "uint256"
        }
      ],
      "name": "TokenPurchase",
      "type": "event"
    },
    {
      "constant": true,
      "inputs": [
        {
          "name": "_beneficiary",
          "type": "address"
        }
      ],
      "name": "getUserContribution",
      "outputs": [
        {
          "name": "",
          "type": "uint256"
        }
      ],
      "payable": false,
      "stateMutability": "view",
      "type": "function"
    },
    {
      "constant": false,
      "inputs": [
        {
          "name": "_stage",
          "type": "uint256"
        }
      ],
      "name": "setCrowdsaleStage",
      "outputs": [],
      "payable": false,
      "stateMutability": "nonpayable",
      "type": "function"
    }
  ],
  "bytecode": "0x60806040526009805460ff1990811690915566071afd498d0000600c55683635c9adc5dea00000600d55600f80549091169055603c6014908155601555600a60168190556017553480156200005357600080fd5b5060405161016080620021f183398101604090815281516020830151918301516060840151608085015160a086015160c087015160e08801516101008901516101208a0151610140909a0151979996979596949593949293919290918487878a8e8e8e60008311620000c457600080fd5b600160a060020a0382161515620000da57600080fd5b600160a060020a0381161515620000f057600080fd5b60029290925560018054600160a060020a03928316600160a060020a0319918216179091556000805492909316911617815581116200012e57600080fd5b600455428210156200013f57600080fd5b818110156200014d57600080fd5b60059190915560065560078054600160a060020a03191633179055600081116200017657600080fd5b600154600160a060020a03166200018c6200023a565b600160a060020a03909116815260405190819003602001906000f080158015620001ba573d6000803e3d6000fd5b50600b8054600160a060020a031916600160a060020a0392909216919091179055600a5587851115620001ec57600080fd5b60188054600160a060020a0319908116600160a060020a039687161790915560198054821694861694909417909355601a805490931691909316179055601055506200024b95505050505050565b6040516106908062001b6183390190565b611906806200025b6000396000f3006080604052600436106101d45763ffffffff60e060020a6000350416631515bc2b81146101df5780632c4e722e14610208578063355274ea1461022f57806340193883146102445780634042b66f1461025957806342e94c901461026e57806346daa2421461028f5780634b6753bc146102a45780634bb278f3146102b95780634f935945146102ce578063521eb273146102e357806353c08ea21461031457806364ceed9914610329578063715018a61461033e5780637d3d652214610353578063864329e3146103685780638ab1d6811461037d5780638c10671c1461039e5780638d4e4083146103be5780638da5cb5b146103d3578063926f0c7b146103e85780639b19251a146103fd578063a3a3382b1461041e578063a997f82f14610433578063b25d7f541461044b578063b5545a3c14610460578063b63e53e014610475578063b7a8807c1461048a578063b91d40011461049f578063bb8b2b47146104b4578063c040e6b8146104d5578063c440008e1461050e578063e43252d714610523578063ec0de26e14610544578063ec8ac4d814610559578063ed5db8741461056d578063f2fde38b14610582578063f45b9bed146105a3578063fbfa77cf146105b8578063fc0c546a146105cd575b6101dd336105e2565b005b3480156101eb57600080fd5b506101f4610684565b604080519115158252519081900360200190f35b34801561021457600080fd5b5061021d61068c565b60408051918252519081900360200190f35b34801561023b57600080fd5b5061021d610692565b34801561025057600080fd5b5061021d610698565b34801561026557600080fd5b5061021d61069e565b34801561027a57600080fd5b5061021d600160a060020a03600435166106a4565b34801561029b57600080fd5b5061021d6106b6565b3480156102b057600080fd5b5061021d6106bc565b3480156102c557600080fd5b506101dd6106c2565b3480156102da57600080fd5b506101f461073c565b3480156102ef57600080fd5b506102f8610747565b60408051600160a060020a039092168252519081900360200190f35b34801561032057600080fd5b5061021d610756565b34801561033557600080fd5b506102f861075c565b34801561034a57600080fd5b506101dd61076b565b34801561035f57600080fd5b506101f46107d9565b34801561037457600080fd5b5061021d6107e4565b34801561038957600080fd5b506101dd600160a060020a03600435166107ea565b3480156103aa57600080fd5b506101dd6004803560248101910135610822565b3480156103ca57600080fd5b506101f4610893565b3480156103df57600080fd5b506102f861089c565b3480156103f457600080fd5b506102f86108ab565b34801561040957600080fd5b506101f4600160a060020a03600435166108ba565b34801561042a57600080fd5b506102f86108cf565b34801561043f57600080fd5b506101dd6004356108de565b34801561045757600080fd5b5061021d610975565b34801561046c57600080fd5b506101dd61097b565b34801561048157600080fd5b506102f8610a1d565b34801561049657600080fd5b5061021d610a2c565b3480156104ab57600080fd5b5061021d610a32565b3480156104c057600080fd5b5061021d600160a060020a0360043516610a38565b3480156104e157600080fd5b506104ea610a53565b604051808260018111156104fa57fe5b60ff16815260200191505060405180910390f35b34801561051a57600080fd5b506102f8610a5c565b34801561052f57600080fd5b506101dd600160a060020a0360043516610a6b565b34801561055057600080fd5b506102f8610aa6565b6101dd600160a060020a03600435166105e2565b34801561057957600080fd5b5061021d610ab5565b34801561058e57600080fd5b506101dd600160a060020a0360043516610abb565b3480156105af57600080fd5b5061021d610adb565b3480156105c457600080fd5b506102f8610ae1565b3480156105d957600080fd5b506102f8610af0565b3460006105ef8383610aff565b6105f882610b79565b60035490915061060e908363ffffffff610b9616565b60035561061b8382610ba3565b60408051838152602081018390528151600160a060020a0386169233927f623b3804fa71d67900d064613da8f94b9617215ee90799290593e1745087ad18929081900390910190a361066d8383610bad565b610675610bb1565b61067f8383610bad565b505050565b600654421190565b60025481565b60045481565b600a5481565b60035481565b600e6020526000908152604090205481565b60145481565b60065481565b600754600160a060020a031633146106d957600080fd5b60095460ff16156106e957600080fd5b6106f1610684565b15156106fc57600080fd5b610704610c2c565b6040517f6823b073d48d6e3a7d385eeb601452d680e74bb46afe3255a7d778f3a9b1768190600090a16009805460ff19166001179055565b600454600354101590565b600154600160a060020a031681565b60155481565b601154600160a060020a031681565b600754600160a060020a0316331461078257600080fd5b600754604051600160a060020a03909116907ff8df31144d9c2f0f6b59d69b8b98abd5459d07f2742c4df920b25aae33c6482090600090a26007805473ffffffffffffffffffffffffffffffffffffffff19169055565b600a54600354101590565b60165481565b600754600160a060020a0316331461080157600080fd5b600160a060020a03166000908152600860205260409020805460ff19169055565b600754600090600160a060020a0316331461083c57600080fd5b5060005b8181101561067f5760016008600085858581811061085a57fe5b60209081029290920135600160a060020a0316835250810191909152604001600020805460ff1916911515919091179055600101610840565b60095460ff1681565b600754600160a060020a031681565b601a54600160a060020a031681565b60086020526000908152604090205460ff1681565b601954600160a060020a031681565b600754600160a060020a031633146108f557600080fd5b80151561090b57600f805460ff19169055610922565b806001141561092257600f805460ff191660011790555b6000600f5460ff16600181111561093557fe5b141561094c576702c68af0bb140000600255610972565b6001600f5460ff16600181111561095f57fe5b1415610972576706f05b59d3b200006002555b50565b600c5481565b60095460ff16151561098c57600080fd5b6109946107d9565b1561099e57600080fd5b600b54604080517ffa89401a0000000000000000000000000000000000000000000000000000000081523360048201529051600160a060020a039092169163fa89401a9160248082019260009290919082900301818387803b158015610a0357600080fd5b505af1158015610a17573d6000803e3d6000fd5b50505050565b601354600160a060020a031681565b60055481565b60105481565b600160a060020a03166000908152600e602052604090205490565b600f5460ff1681565b601854600160a060020a031681565b600754600160a060020a03163314610a8257600080fd5b600160a060020a03166000908152600860205260409020805460ff19166001179055565b601254600160a060020a031681565b600d5481565b600754600160a060020a03163314610ad257600080fd5b61097281611207565b60175481565b600b54600160a060020a031681565b600054600160a060020a031681565b600080610b0c8484611285565b600160a060020a0384166000908152600e60205260409020549150610b37828463ffffffff610b9616565b9050600c548110158015610b4d5750600d548111155b1515610b5857600080fd5b600160a060020a039093166000908152600e60205260409020929092555050565b6000610b90600254836112b890919063ffffffff16565b92915050565b81810182811015610b9057fe5b610bad82826112e1565b5050565b6000600f5460ff166001811115610bc457fe5b1415610c0957600154604051600160a060020a03909116903480156108fc02916000818181858888f19350505050158015610c03573d6000803e3d6000fd5b50610c2a565b6001600f5460ff166001811115610c1c57fe5b1415610c2a57610c2a61138a565b565b600080600080610c3a6107d9565b156111ff576000809054906101000a9004600160a060020a0316935083600160a060020a03166318160ddd6040518163ffffffff1660e060020a028152600401602060405180830381600087803b158015610c9457600080fd5b505af1158015610ca8573d6000803e3d6000fd5b505050506040513d6020811015610cbe57600080fd5b5051601454909350610cea90606490610cde90869063ffffffff61140b16565b9063ffffffff6112b816565b600054601854601054929450600160a060020a0391821692911690610d0d611581565b600160a060020a039384168152919092166020820152604080820192909252905190819003606001906000f080158015610d4b573d6000803e3d6000fd5b506011805473ffffffffffffffffffffffffffffffffffffffff1916600160a060020a03928316179055600054601954601054918316921690610d8c611581565b600160a060020a039384168152919092166020820152604080820192909252905190819003606001906000f080158015610dca573d6000803e3d6000fd5b506012805473ffffffffffffffffffffffffffffffffffffffff1916600160a060020a03928316179055600054601a54601054918316921690610e0b611581565b600160a060020a039384168152919092166020820152604080820192909252905190819003606001906000f080158015610e49573d6000803e3d6000fd5b506013805473ffffffffffffffffffffffffffffffffffffffff1916600160a060020a03928316179055601154601554868316926340c10f19921690610ea390606490610e979088906112b8565b9063ffffffff61140b16565b6040518363ffffffff1660e060020a0281526004018083600160a060020a0316600160a060020a0316815260200182815260200192505050602060405180830381600087803b158015610ef557600080fd5b505af1158015610f09573d6000803e3d6000fd5b505050506040513d6020811015610f1f57600080fd5b5050601254601654600160a060020a03808716926340c10f1992911690610f5490606490610e9790889063ffffffff6112b816565b6040518363ffffffff1660e060020a0281526004018083600160a060020a0316600160a060020a0316815260200182815260200192505050602060405180830381600087803b158015610fa657600080fd5b505af1158015610fba573d6000803e3d6000fd5b505050506040513d6020811015610fd057600080fd5b5050601354601754600160a060020a03808716926340c10f199291169061100590606490610e9790889063ffffffff6112b816565b6040518363ffffffff1660e060020a0281526004018083600160a060020a0316600160a060020a0316815260200182815260200192505050602060405180830381600087803b15801561105757600080fd5b505af115801561106b573d6000803e3d6000fd5b505050506040513d602081101561108157600080fd5b5050604080517f7d64bcb40000000000000000000000000000000000000000000000000000000081529051600160a060020a03861691637d64bcb49160048083019260209291908290030181600087803b1580156110de57600080fd5b505af11580156110f2573d6000803e3d6000fd5b505050506040513d602081101561110857600080fd5b505060008054604080517f3f4ba83a0000000000000000000000000000000000000000000000000000000081529051600160a060020a0390921693508392633f4ba83a9260048084019382900301818387803b15801561116757600080fd5b505af115801561117b573d6000803e3d6000fd5b5050600154604080517ff2fde38b000000000000000000000000000000000000000000000000000000008152600160a060020a0392831660048201529051918516935063f2fde38b925060248082019260009290919082900301818387803b1580156111e657600080fd5b505af11580156111fa573d6000803e3d6000fd5b505050505b610a17611420565b600160a060020a038116151561121c57600080fd5b600754604051600160a060020a038084169216907f8be0079c531659141344cd1fd0a4f28419497f9722a3daafe3b4186f6b6457e090600090a36007805473ffffffffffffffffffffffffffffffffffffffff1916600160a060020a0392909216919091179055565b600160a060020a038216600090815260086020526040902054829060ff1615156112ae57600080fd5b61067f8383611511565b60008215156112c957506000610b90565b508181028183828115156112d957fe5b0414610b9057fe5b60008054604080517f40c10f19000000000000000000000000000000000000000000000000000000008152600160a060020a03868116600483015260248201869052915191909216926340c10f1992604480820193602093909283900390910190829087803b15801561135357600080fd5b505af1158015611367573d6000803e3d6000fd5b505050506040513d602081101561137d57600080fd5b50511515610bad57600080fd5b600b54604080517ff340fa010000000000000000000000000000000000000000000000000000000081523360048201529051600160a060020a039092169163f340fa01913491602480830192600092919082900301818588803b1580156113f057600080fd5b505af1158015611404573d6000803e3d6000fd5b5050505050565b6000818381151561141857fe5b049392505050565b6114286107d9565b1561149d57600b60009054906101000a9004600160a060020a0316600160a060020a03166343d726d66040518163ffffffff1660e060020a028152600401600060405180830381600087803b15801561148057600080fd5b505af1158015611494573d6000803e3d6000fd5b50505050611509565b600b60009054906101000a9004600160a060020a0316600160a060020a0316638c52dc416040518163ffffffff1660e060020a028152600401600060405180830381600087803b1580156114f057600080fd5b505af1158015611504573d6000803e3d6000fd5b505050505b610c2a610c2a565b600554421015801561152557506006544211155b151561153057600080fd5b610bad828261153f8282611560565b600454600354611555908363ffffffff610b9616565b1115610bad57600080fd5b600160a060020a038216151561157557600080fd5b801515610bad57600080fd5b60405161034980611592833901905600608060405234801561001057600080fd5b5060405160608061034983398101604090815281516020830151919092015142811161003b57600080fd5b60008054600160a060020a03948516600160a060020a03199182161790915560018054939094169216919091179091556002556102cc8061007d6000396000f3006080604052600436106100615763ffffffff7c010000000000000000000000000000000000000000000000000000000060003504166338af3eed811461006657806386d1a69f14610097578063b91d4001146100ae578063fc0c546a146100d5575b600080fd5b34801561007257600080fd5b5061007b6100ea565b60408051600160a060020a039092168252519081900360200190f35b3480156100a357600080fd5b506100ac6100f9565b005b3480156100ba57600080fd5b506100c36101d3565b60408051918252519081900360200190f35b3480156100e157600080fd5b5061007b6101d9565b600154600160a060020a031681565b60025460009042101561010b57600080fd5b60008054604080517f70a082310000000000000000000000000000000000000000000000000000000081523060048201529051600160a060020a03909216926370a08231926024808401936020939083900390910190829087803b15801561017257600080fd5b505af1158015610186573d6000803e3d6000fd5b505050506040513d602081101561019c57600080fd5b50519050600081116101ad57600080fd5b6001546000546101d091600160a060020a0391821691168363ffffffff6101e816565b50565b60025481565b600054600160a060020a031681565b82600160a060020a031663a9059cbb83836040518363ffffffff167c01000000000000000000000000000000000000000000000000000000000281526004018083600160a060020a0316600160a060020a0316815260200182815260200192505050602060405180830381600087803b15801561026457600080fd5b505af1158015610278573d6000803e3d6000fd5b505050506040513d602081101561028e57600080fd5b5051151561029b57600080fd5b5050505600a165627a7a72305820f4e455169fface34304b52b0decc8716cb482fbd78e008e423bb77c6f773cc780029a165627a7a72305820558ae0af561a8ad99ab7c1a9df55e3bb07a98678c7b1e9b4665e068c4a3cadd20029608060405234801561001057600080fd5b50604051602080610690833981016040525160008054600160a060020a03191633179055600160a060020a038116151561004957600080fd5b60028054600160a060020a031916600160a060020a03929092169190911760a060020a60ff021916905561060e806100826000396000f3006080604052600436106100a35763ffffffff7c010000000000000000000000000000000000000000000000000000000060003504166343d726d681146100a8578063521eb273146100bf578063715018a6146100f05780638c52dc41146101055780638da5cb5b1461011a578063c19d93fb1461012f578063cb13cddb14610168578063f2fde38b1461019b578063f340fa01146101bc578063fa89401a146101d0575b600080fd5b3480156100b457600080fd5b506100bd6101f1565b005b3480156100cb57600080fd5b506100d46102c7565b60408051600160a060020a039092168252519081900360200190f35b3480156100fc57600080fd5b506100bd6102d6565b34801561011157600080fd5b506100bd610342565b34801561012657600080fd5b506100d46103cc565b34801561013b57600080fd5b506101446103db565b6040518082600281111561015457fe5b60ff16815260200191505060405180910390f35b34801561017457600080fd5b50610189600160a060020a03600435166103eb565b60408051918252519081900360200190f35b3480156101a757600080fd5b506100bd600160a060020a03600435166103fd565b6100bd600160a060020a036004351661041d565b3480156101dc57600080fd5b506100bd600160a060020a036004351661049d565b600054600160a060020a0316331461020857600080fd5b60006002805460a060020a900460ff169081111561022257fe5b1461022c57600080fd5b6002805474ff00000000000000000000000000000000000000001916740200000000000000000000000000000000000000001790556040517f1cdde67b72a90f19919ac732a437ac2f7a10fc128d28c2a6e525d89ce5cd9d3a90600090a1600254604051600160a060020a0390911690303180156108fc02916000818181858888f193505050501580156102c4573d6000803e3d6000fd5b50565b600254600160a060020a031681565b600054600160a060020a031633146102ed57600080fd5b60008054604051600160a060020a03909116917ff8df31144d9c2f0f6b59d69b8b98abd5459d07f2742c4df920b25aae33c6482091a26000805473ffffffffffffffffffffffffffffffffffffffff19169055565b600054600160a060020a0316331461035957600080fd5b60006002805460a060020a900460ff169081111561037357fe5b1461037d57600080fd5b6002805474ff0000000000000000000000000000000000000000191660a060020a1790556040517f599d8e5a83cffb867d051598c4d70e805d59802d8081c1c7d6dffc5b6aca2b8990600090a1565b600054600160a060020a031681565b60025460a060020a900460ff1681565b60016020526000908152604090205481565b600054600160a060020a0316331461041457600080fd5b6102c481610552565b600054600160a060020a0316331461043457600080fd5b60006002805460a060020a900460ff169081111561044e57fe5b1461045857600080fd5b600160a060020a038116600090815260016020526040902054610481903463ffffffff6105cf16565b600160a060020a03909116600090815260016020526040902055565b600060016002805460a060020a900460ff16908111156104b957fe5b146104c357600080fd5b50600160a060020a038116600081815260016020526040808220805490839055905190929183156108fc02918491818181858888f1935050505015801561050e573d6000803e3d6000fd5b50604080518281529051600160a060020a038416917fd7dee2702d63ad89917b6a4da9981c90c4d24f8c2bdfd64c604ecae57d8d0651919081900360200190a25050565b600160a060020a038116151561056757600080fd5b60008054604051600160a060020a03808516939216917f8be0079c531659141344cd1fd0a4f28419497f9722a3daafe3b4186f6b6457e091a36000805473ffffffffffffffffffffffffffffffffffffffff1916600160a060020a0392909216919091179055565b818101828110156105dc57fe5b929150505600a165627a7a72305820bedcec8e66341ed53ef3c6633e9ae6bcf0911b003b6577021cf5655cc204860b0029",
  "source": "pragma solidity 0.4.24;\n\nimport \"openzeppelin-solidity/contracts/token/ERC20/ERC20.sol\";\nimport \"openzeppelin-solidity/contracts/token/ERC20/PausableToken.sol\";\nimport \"openzeppelin-solidity/contracts/token/ERC20/MintableToken.sol\";\nimport \"openzeppelin-solidity/contracts/token/ERC20/TokenTimelock.sol\";\nimport \"openzeppelin-solidity/contracts/crowdsale/Crowdsale.sol\";\nimport \"openzeppelin-solidity/contracts/crowdsale/emission/MintedCrowdsale.sol\";\nimport \"openzeppelin-solidity/contracts/crowdsale/validation/CappedCrowdsale.sol\";\nimport \"openzeppelin-solidity/contracts/crowdsale/validation/TimedCrowdsale.sol\";\nimport \"openzeppelin-solidity/contracts/crowdsale/validation/WhitelistedCrowdsale.sol\";\nimport \"openzeppelin-solidity/contracts/crowdsale/distribution/RefundableCrowdsale.sol\";\n\ncontract MutinyTokenCrowdsale is Crowdsale, MintedCrowdsale, CappedCrowdsale, TimedCrowdsale, WhitelistedCrowdsale, RefundableCrowdsale {\n\n  // for Tracking investor contributions\n  uint256 public investorMinCap = 2000000000000000; // 0.002 ether\n  uint256 public investorHardCap = 1000000000000000000000; // 1000 ether\n  mapping(address => uint256) public contributions;\n\n  // Two Crowdsale Stages   \n  enum CrowdsaleStage { PreICO, ICO }\n  CrowdsaleStage public stage = CrowdsaleStage.PreICO;\n\n  uint256 public releaseTime;\n  address public foundersTimelock;\n  address public foundationTimelock;\n  address public partnersTimelock;\n  \n  // Distribution of tokens\n  uint256 public tokenSalePercentage   = 60;\n  uint256 public foundersPercentage    = 20;\n  uint256 public foundationPercentage  = 10;\n  uint256 public partnersPercentage    = 10;\n\n  address public foundersFund;\n  address public foundationFund;\n  address public partnersFund;\n\n\n  constructor(\n    uint256 _rate,\n    address _wallet,\n    ERC20 _token,\n    uint256 _cap,\n    uint256 _openingTime,\n    uint256 _closingTime,\n    uint256 _goal,\n    address _foundersFund,\n    address _foundationFund,\n    address _partnersFund,\n    uint256 _releaseTime\n  )\n    Crowdsale(_rate, _wallet, _token)\n    CappedCrowdsale(_cap)\n    TimedCrowdsale(_openingTime, _closingTime)\n    RefundableCrowdsale(_goal) public  {\n    require(_goal <= _cap);\n    foundersFund   = _foundersFund;\n    foundationFund = _foundationFund;\n    partnersFund   = _partnersFund;\n    releaseTime    = _releaseTime;\n  }\n\n\n  function getUserContribution(address _beneficiary)  public view returns (uint256)\n  {\n    return contributions[_beneficiary];\n  }\n\n  // for updating crownsale stage\n  function setCrowdsaleStage(uint _stage) public onlyOwner {\n    if(uint(CrowdsaleStage.PreICO) == _stage) {\n      stage = CrowdsaleStage.PreICO;\n    } else if (uint(CrowdsaleStage.ICO) == _stage) {\n      stage = CrowdsaleStage.ICO;\n    }\n\n    if(stage == CrowdsaleStage.PreICO) {\n      rate = 200000000000000000;\n    } else if (stage == CrowdsaleStage.ICO) {\n      rate = 500000000000000000;\n    }\n  }\n\n   // To forward funds to the wallet(during PreICO), then the refund vault (during ICO)\n  function _forwardFunds() internal {\n    if(stage == CrowdsaleStage.PreICO) {\n      wallet.transfer(msg.value);\n    } else if (stage == CrowdsaleStage.ICO) {\n      super._forwardFunds();\n    }\n  }\n\n  // for investor min/max funding cap.\n  function _preValidatePurchase(address _beneficiary, uint256 _weiAmount) internal {\n    super._preValidatePurchase(_beneficiary, _weiAmount);\n    uint256 _existingContribution = contributions[_beneficiary];\n    uint256 _newContribution = _existingContribution.add(_weiAmount);\n    require(_newContribution >= investorMinCap && _newContribution <= investorHardCap);\n    contributions[_beneficiary] = _newContribution;\n  }\n\n\n  // to enable token transfers\n  function finalization() internal {\n    if(goalReached()) {\n      MintableToken _mintableToken = MintableToken(token);\n      uint256 _alreadyMinted = _mintableToken.totalSupply();\n\n      uint256 _finalTotalSupply = _alreadyMinted.div(tokenSalePercentage).mul(100);\n\n      foundersTimelock   = new TokenTimelock(token, foundersFund, releaseTime);\n      foundationTimelock = new TokenTimelock(token, foundationFund, releaseTime);\n      partnersTimelock   = new TokenTimelock(token, partnersFund, releaseTime);\n\n      _mintableToken.mint(address(foundersTimelock),   _finalTotalSupply.mul(foundersPercentage).div(100));\n      _mintableToken.mint(address(foundationTimelock), _finalTotalSupply.mul(foundationPercentage).div(100));\n      _mintableToken.mint(address(partnersTimelock),   _finalTotalSupply.mul(partnersPercentage).div(100));\n\n      _mintableToken.finishMinting();\n      PausableToken _pausableToken = PausableToken(token);\n      _pausableToken.unpause();\n      _pausableToken.transferOwnership(wallet);\n    }\n\n    super.finalization();\n  }\n\n}\n",
  "sourcePath": "/home/mohit/Desktop/Truffle/Crowdsale_mutiny/contracts/MutinyTokenCrowdSale.sol",
  "compiler": {
    "name": "solc",
    "version": "0.4.24+commit.e67f0147.Emscripten.clang"
  },
  "schemaVersion": "2.0.0",
  "updatedAt": "2019-04-06T14:34:06.003Z"
}